{
  "transactions": [
    {
      "hash": "0xebd85c4e3a8bdce739ba19438e8491d00004a4feefd6b5300eabedf59951bd32",
      "transactionType": "CREATE",
      "contractName": "HospitalRegistry",
      "contractAddress": "0x5fbdb2315678afecb367f032d93f642f64180aa3",
      "function": null,
      "arguments": [
        "0xf39Fd6e51aad88F6F4ce6aB8827279cffFb92266"
      ],
      "transaction": {
        "from": "0xf39fd6e51aad88f6f4ce6ab8827279cfffb92266",
        "gas": "0xc494d",
        "value": "0x0",
        "input": "0x60803460b857601f610a8f38819003918201601f19168301916001600160401b0383118484101760bc5780849260209460405283398101031260b857516001600160a01b0381169081900360b857801560a5575f80546001600160a01b031981168317825560405192916001600160a01b03909116907f8be0079c531659141344cd1fd0a4f28419497f9722a3daafe3b4186f6b6457e09080a36109be90816100d18239f35b631e4fbdf760e01b5f525f60045260245ffd5b5f80fd5b634e487b7160e01b5f52604160045260245ffdfe6080806040526004361015610012575f80fd5b5f3560e01c9081633fd64687146106ff5750806346fab624146106345780635e3090651461025d578063715018a6146102065780638da5cb5b146101df578063f093cf801461013d578063f2fde38b146100b85763fd9d522114610074575f80fd5b346100b45760203660031901126100b4576001600160a01b036100956107d8565b165f526001602052602060ff600260405f200154166040519015158152f35b5f80fd5b346100b45760203660031901126100b4576100d16107d8565b6100d9610962565b6001600160a01b0316801561012a575f80546001600160a01b03198116831782556001600160a01b0316907f8be0079c531659141344cd1fd0a4f28419497f9722a3daafe3b4186f6b6457e09080a3005b631e4fbdf760e01b5f525f60045260245ffd5b346100b45760203660031901126100b4576001600160a01b0361015e6107d8565b165f5260016020526101a060405f206101768161089e565b906101ae60026101886001840161089e565b9201549160405194859460a0865260a086019061093e565b90848203602086015261093e565b60ff80831615156040850152600883901c161515606084015260109190911c6001600160a01b031660808301520390f35b346100b4575f3660031901126100b4575f546040516001600160a01b039091168152602090f35b346100b4575f3660031901126100b45761021e610962565b5f80546001600160a01b0319811682556001600160a01b03167f8be0079c531659141344cd1fd0a4f28419497f9722a3daafe3b4186f6b6457e08280a3005b346100b45760803660031901126100b4576102766107d8565b60243567ffffffffffffffff81116100b457610296903690600401610810565b60443567ffffffffffffffff81116100b4576102b6903690600401610810565b91606435908115158092036100b4576102cd610962565b60018060a01b031691825f5260016020526102eb60405f2054610866565b6105fa576040519060a0820182811067ffffffffffffffff82111761051f5760405281526020810193845260408101915f83526060820190815260808201915f8352845f52600160205260405f20905180519067ffffffffffffffff821161051f5781906103598454610866565b601f81116105a1575b50602090601f831160011461053e575f92610533575b50508160011b915f199060031b1c19161781555b60018101955195865167ffffffffffffffff811161051f576103ae8254610866565b601f81116104ce575b506020601f82116001146104645790806002949392610433999a5f92610459575b50508160011b915f199060031b1c19161790555b935193018054915192516001600160b01b031990921660ff941515949094169390931791151560081b61ff00169190911760109190911b62010000600160b01b0316179055565b7f380355b6fe4f9755ddcef7c5c195edae45bdb34953a41d82386022f3cd5899f05f80a2005b015190508a806103d8565b601f19821698835f52815f20995f5b8181106104b6575099600192849260029796956104339c9d1061049e575b505050811b0190556103ec565b01515f1960f88460031b161c191690558a8080610491565b838301518c556001909b019a60209384019301610473565b818111156103b757825f5260205f20601f830160051c9060208410610517575b81601f9101920160051c03905f5b82811061050a5750506103b7565b5f828201556001016104fc565b5f91506104ee565b634e487b7160e01b5f52604160045260245ffd5b015190508880610378565b5f8581528281209350601f198516905b8181106105895750908460019594939210610571575b505050811b01815561038c565b01515f1960f88460031b161c19169055888080610564565b9293602060018192878601518155019501930161054e565b8281111561036257909150835f5260205f20601f840160051c90602085106105f2575b849392601f0160051c82900391015f5b8281106105e2575050610362565b5f818301558594506001016105d4565b5f91506105c4565b60405162461bcd60e51b8152602060048201526012602482015271105b1c9958591e481c9959da5cdd195c995960721b6044820152606490fd5b346100b45760203660031901126100b45761064d6107d8565b610655610962565b6001600160a01b03165f8181526001602052604090205461067590610866565b156106ba57805f526001602052600260405f2001600160ff198254161790557ff474af46ed77eb03872a0d016133655c67f732a6d73a90ea7403bd4a79f8bcdf5f80a2005b60405162461bcd60e51b815260206004820152601760248201527f486f73706974616c206e6f7420726567697374657265640000000000000000006044820152606490fd5b346100b45760203660031901126100b4576107186107d8565b90335f52600160205260ff600260405f200154161561079e5750335f908152600160205260409020600201805462010000600160b01b031916601083901b62010000600160b01b03161790556040516001600160a01b03909116815233907f078c3b417dadf69374a59793b829c52001247130433427049317bde56607b1b790602090a2005b62461bcd60e51b8152602060048201526015602482015274139bdd081d995c9a599a5959081a1bdcdc1a5d185b605a1b6044820152606490fd5b600435906001600160a01b03821682036100b457565b90601f8019910116810190811067ffffffffffffffff82111761051f57604052565b81601f820112156100b45780359067ffffffffffffffff821161051f5760405192610845601f8401601f1916602001856107ee565b828452602083830101116100b457815f926020809301838601378301015290565b90600182811c92168015610894575b602083101461088057565b634e487b7160e01b5f52602260045260245ffd5b91607f1691610875565b9060405191825f8254926108b184610866565b808452936001811690811561091c57506001146108d8575b506108d6925003836107ee565b565b90505f9291925260205f20905f915b8183106109005750509060206108d6928201015f6108c9565b60209193508060019154838589010152019101909184926108e7565b9050602092506108d694915060ff191682840152151560051b8201015f6108c9565b805180835260209291819084018484015e5f828201840152601f01601f1916010190565b5f546001600160a01b0316330361097557565b63118cdaa760e01b5f523360045260245ffdfea26469706673582212208c8bae58151e9f41a535cb45592e13728c6297720577b7b72aaaddb2d754c40164736f6c63430008210033000000000000000000000000f39fd6e51aad88f6f4ce6ab8827279cfffb92266",
        "nonce": "0x0",
        "chainId": "0x7a69"
      },
      "additionalContracts": [],
      "isFixedGasLimit": false
    },
    {
      "hash": "0xddaf6bdb8e9ccd3d4ca23e2c8d3ac6ac51eada9784bc04c64c28b4b7672cade8",
      "transactionType": "CREATE",
      "contractName": "DoctorRegistry",
      "contractAddress": "0xe7f1725e7734ce288f8367e1bb143e90bb3f0512",
      "function": null,
      "arguments": [
        "0x5FbDB2315678afecb367f032d93F642f64180aa3",
        "0xf39Fd6e51aad88F6F4ce6aB8827279cffFb92266"
      ],
      "transaction": {
        "from": "0xf39fd6e51aad88f6f4ce6ab8827279cfffb92266",
        "gas": "0xca746",
        "value": "0x0",
        "input": "0x6080346100ea57601f610abc38819003918201601f19168301916001600160401b038311848410176100ee5780849260409485528339810103126100ea5761004681610102565b906001600160a01b039061005c90602001610102565b169081156100d7575f80546001600160a01b031981168417825560405193916001600160a01b03909116907f8be0079c531659141344cd1fd0a4f28419497f9722a3daafe3b4186f6b6457e09080a3600280546001600160a01b0319166001600160a01b03929092169190911790556109a590816101178239f35b631e4fbdf760e01b5f525f60045260245ffd5b5f80fd5b634e487b7160e01b5f52604160045260245ffd5b51906001600160a01b03821682036100ea5756fe60806040526004361015610011575f80fd5b5f3560e01c806305497209146103415780630b13acdf146102fe57806369b80fc9146102d6578063715018a61461027f5780638da5cb5b14610258578063a9583c22146101c4578063d80cb05c146100fa5763f2fde38b14610071575f80fd5b346100f65760203660031901126100f65761008a6107bf565b610092610949565b6001600160a01b031680156100e3575f80546001600160a01b03198116831782556001600160a01b0316907f8be0079c531659141344cd1fd0a4f28419497f9722a3daafe3b4186f6b6457e09080a3005b631e4fbdf760e01b5f525f60045260245ffd5b5f80fd5b346100f65760203660031901126100f6576101136107bf565b61011b610949565b6001600160a01b03165f8181526001602052604090205461013b9061084d565b15610187575f818152600160205260408120600201805460ff60a01b1916600160a01b1790557fb0859f2cf042b300c8948cdd785ec6a23a3742bc5446c19f4b270b67fac2c9679080a2005b60405162461bcd60e51b8152602060048201526015602482015274111bd8dd1bdc881b9bdd081c9959da5cdd195c9959605a1b6044820152606490fd5b346100f65760203660031901126100f6576001600160a01b036101e56107bf565b165f52600160205261022960405f206101fd81610885565b9060ff610237600261021160018501610885565b93015492604051958695608087526080870190610925565b908582036020870152610925565b6001600160a01b038316604085015260a09290921c16151560608301520390f35b346100f6575f3660031901126100f6575f546040516001600160a01b039091168152602090f35b346100f6575f3660031901126100f657610297610949565b5f80546001600160a01b0319811682556001600160a01b03167f8be0079c531659141344cd1fd0a4f28419497f9722a3daafe3b4186f6b6457e08280a3005b346100f6575f3660031901126100f6576002546040516001600160a01b039091168152602090f35b346100f65760203660031901126100f6576001600160a01b0361031f6107bf565b165f526001602052602060ff600260405f20015460a01c166040519015158152f35b346100f65760803660031901126100f65761035a6107bf565b60243567ffffffffffffffff81116100f65761037a9036906004016107f7565b60443567ffffffffffffffff81116100f65761039a9036906004016107f7565b906064359260018060a01b0384168094036100f6576103b7610949565b60025460405163fd9d522160e01b81526004810186905290602090829060249082906001600160a01b03165afa9081156107b4575f91610779575b501561073c5760018060a01b031691825f52600160205261041660405f205461084d565b61070257604051916080830183811067ffffffffffffffff82111761062757604052825260208201908152604082019184835260608101915f8352845f52600160205260405f20915180519067ffffffffffffffff821161062757819061047d855461084d565b601f81116106a9575b50602090601f8311600114610646575f9261063b575b50508160011b915f199060031b1c19161782555b518051600183019167ffffffffffffffff8211610627576104d1835461084d565b601f81116105d6575b50602090601f831160011461056f576002949392915f9183610564575b50508160011b915f199060031b1c19161790555b92519201805491516001600160a81b03199092166001600160a01b03939093169290921790151560a01b60ff60a01b161790557fcf12359779672fc0f439daf25af37eb6bd364d4a91124a6f736cafd64420d3ba5f80a3005b0151905089806104f7565b90601f19831691845f52815f20925f5b8181106105be5750916001939185600298979694106105a6575b505050811b01905561050b565b01515f1960f88460031b161c19169055898080610599565b9293602060018192878601518155019501930161057f565b828111156104da57835f5260205f20601f840160051c906020851061061f575b81601f9101920160051c03905f5b8281106106125750506104da565b5f82820155600101610604565b5f91506105f6565b634e487b7160e01b5f52604160045260245ffd5b01519050888061049c565b5f8681528281209350601f198516905b8181106106915750908460019594939210610679575b505050811b0182556104b0565b01515f1960f88460031b161c1916905588808061066c565b92936020600181928786015181550195019301610656565b8281111561048657909150845f5260205f20601f840160051c90602085106106fa575b849392601f0160051c82900391015f5b8281106106ea575050610486565b5f818301558594506001016106dc565b5f91506106cc565b60405162461bcd60e51b8152602060048201526012602482015271105b1c9958591e481c9959da5cdd195c995960721b6044820152606490fd5b60405162461bcd60e51b8152602060048201526015602482015274121bdcdc1a5d185b081b9bdd081d995c9a599a5959605a1b6044820152606490fd5b90506020813d6020116107ac575b81610794602093836107d5565b810103126100f6575180151581036100f657856103f2565b3d9150610787565b6040513d5f823e3d90fd5b600435906001600160a01b03821682036100f657565b90601f8019910116810190811067ffffffffffffffff82111761062757604052565b81601f820112156100f65780359067ffffffffffffffff8211610627576040519261082c601f8401601f1916602001856107d5565b828452602083830101116100f657815f926020809301838601378301015290565b90600182811c9216801561087b575b602083101461086757565b634e487b7160e01b5f52602260045260245ffd5b91607f169161085c565b9060405191825f8254926108988461084d565b808452936001811690811561090357506001146108bf575b506108bd925003836107d5565b565b90505f9291925260205f20905f915b8183106108e75750509060206108bd928201015f6108b0565b60209193508060019154838589010152019101909184926108ce565b9050602092506108bd94915060ff191682840152151560051b8201015f6108b0565b805180835260209291819084018484015e5f828201840152601f01601f1916010190565b5f546001600160a01b0316330361095c57565b63118cdaa760e01b5f523360045260245ffdfea2646970667358221220207466680df5087c44b995431349d08dc2913f341aeb4957ed522c9cb6d24b9764736f6c634300082100330000000000000000000000005fbdb2315678afecb367f032d93f642f64180aa3000000000000000000000000f39fd6e51aad88f6f4ce6ab8827279cfffb92266",
        "nonce": "0x1",
        "chainId": "0x7a69"
      },
      "additionalContracts": [],
      "isFixedGasLimit": false
    },
    {
      "hash": "0x8f45be54fe28ce2fd1d791d267a46f39a4b8c92c2407cb2cf43c4be43a594634",
      "transactionType": "CREATE",
      "contractName": "ConsentManager",
      "contractAddress": "0x9fe46736679d2d9a65f0992f2272de9f3c7fa6e0",
      "function": null,
      "arguments": [
        "0xf39Fd6e51aad88F6F4ce6aB8827279cffFb92266"
      ],
      "transaction": {
        "from": "0xf39fd6e51aad88f6f4ce6ab8827279cfffb92266",
        "gas": "0x6d9cb",
        "value": "0x0",
        "input": "0x60803460b857601f61059b38819003918201601f19168301916001600160401b0383118484101760bc5780849260209460405283398101031260b857516001600160a01b0381169081900360b857801560a5575f80546001600160a01b031981168317825560405192916001600160a01b03909116907f8be0079c531659141344cd1fd0a4f28419497f9722a3daafe3b4186f6b6457e09080a36104ca90816100d18239f35b631e4fbdf760e01b5f525f60045260245ffd5b5f80fd5b634e487b7160e01b5f52604160045260245ffdfe60806040526004361015610011575f80fd5b5f3560e01c80630ae5e7391461037057806313d054d7146102cd5780631709ef0714610297578063715018a61461024057806385e68531146101d35780638da5cb5b146101ac5780639bc553551461015c578063f2fde38b146100d75763fe127fcb1461007c575f80fd5b346100d35760403660031901126100d3576100956103e0565b61009d6103f6565b9060018060a01b03165f52600160205260405f209060018060a01b03165f52602052602060ff60405f2054166040519015158152f35b5f80fd5b346100d35760203660031901126100d3576100f06103e0565b6100f861046e565b6001600160a01b03168015610149575f80546001600160a01b03198116831782556001600160a01b0316907f8be0079c531659141344cd1fd0a4f28419497f9722a3daafe3b4186f6b6457e09080a3005b631e4fbdf760e01b5f525f60045260245ffd5b346100d35760403660031901126100d3576101756103e0565b61017d6103f6565b6001600160a01b039182165f908152600260209081526040808320949093168252928352819020549051908152f35b346100d3575f3660031901126100d3575f546040516001600160a01b039091168152602090f35b346100d35760203660031901126100d3576101ec6103e0565b335f8181526001602090815260408083206001600160a01b0395909516808452949091528120805460ff191690557f825c8be24eb0df19500f63e86c29e7d0d951e73056b889b891d85e40938d9b6e9080a3005b346100d3575f3660031901126100d35761025861046e565b5f80546001600160a01b0319811682556001600160a01b03167f8be0079c531659141344cd1fd0a4f28419497f9722a3daafe3b4186f6b6457e08280a3005b346100d35760403660031901126100d35760206102c36102b56103e0565b6102bd6103f6565b9061040c565b6040519015158152f35b346100d35760603660031901126100d3576102e66103e0565b6102ee6103f6565b6102f661046e565b60443542019182421161035c576001600160a01b039081165f8181526002602090815260408083209590941680835294815290839020859055915193845291927f5d1675d647fd82d7866123d4b61e400e9b9cd41946ae22001974c31e8addb20b9190a3005b634e487b7160e01b5f52601160045260245ffd5b346100d35760203660031901126100d3576103896103e0565b335f8181526001602081815260408084206001600160a01b0396909616808552959091528220805460ff191690911790557f9f520b3bfc56d06f7065d10b4683b3f57ac8895d5026cd176dee95ce1454cb8d9080a3005b600435906001600160a01b03821682036100d357565b602435906001600160a01b03821682036100d357565b60018060a01b0316805f52600160205260405f2060018060a01b0383165f5260205260ff60405f205416610467575f52600260205260405f209060018060a01b03165f5260205260405f20544210610462575f90565b600190565b5050600190565b5f546001600160a01b0316330361048157565b63118cdaa760e01b5f523360045260245ffdfea26469706673582212200a19d6d72f91f7cf18eb09157b8bc75b9504b400e1f82fe895f2ce3e3452437d64736f6c63430008210033000000000000000000000000f39fd6e51aad88f6f4ce6ab8827279cfffb92266",
        "nonce": "0x2",
        "chainId": "0x7a69"
      },
      "additionalContracts": [],
      "isFixedGasLimit": false
    },
    {
      "hash": "0xc0bcc4cd0e207bd1d6e8411c8a19bc5e8c4731a40b91acf9b2098874792eb886",
      "transactionType": "CREATE",
      "contractName": "InsuranceEscrow",
      "contractAddress": "0xcf7ed3acca5a467e9e704c703e8d87f634fb0fc9",
      "function": null,
      "arguments": [
        "0xf39Fd6e51aad88F6F4ce6aB8827279cffFb92266"
      ],
      "transaction": {
        "from": "0xf39fd6e51aad88f6f4ce6ab8827279cfffb92266",
        "gas": "0xcbaed",
        "value": "0x0",
        "input": "0x60803460b857601f610af538819003918201601f19168301916001600160401b0383118484101760bc5780849260209460405283398101031260b857516001600160a01b0381169081900360b857801560a5575f80546001600160a01b031981168317825560405192916001600160a01b03909116907f8be0079c531659141344cd1fd0a4f28419497f9722a3daafe3b4186f6b6457e09080a3610a2490816100d18239f35b631e4fbdf760e01b5f525f60045260245ffd5b5f80fd5b634e487b7160e01b5f52604160045260245ffdfe6080806040526004361015610012575f80fd5b5f3560e01c908163012f52ee1461078957508063278ecde1146106aa578063378942d3146105e7578063466730ff146103ae578063715018a6146103575780637d19e596146102325780638da5cb5b1461020b578063c7ceafea146101ee578063dba579aa146101135763f2fde38b1461008a575f80fd5b3461010f57602036600319011261010f576100a3610822565b6100ab6108fa565b6001600160a01b031680156100fc575f80546001600160a01b03198116831782556001600160a01b0316907f8be0079c531659141344cd1fd0a4f28419497f9722a3daafe3b4186f6b6457e09080a3005b631e4fbdf760e01b5f525f60045260245ffd5b5f80fd5b3461010f57602036600319011261010f57600435805f52600260205260405f2060018060a01b0360028201541633036101b8576004019081549160ff8360101c1660048110156101a4576101a29361017060016101009314610838565b61ff001916179055807fb3dab2b8bef10d7551f3e6e8ef911782f7b1805355277744303b989a775b01615f80a2610920565b005b634e487b7160e01b5f52602160045260245ffd5b60405162461bcd60e51b815260206004820152600e60248201526d4f6e6c7920696e737572616e636560901b6044820152606490fd5b3461010f575f36600319011261010f576020600154604051908152f35b3461010f575f36600319011261010f575f546040516001600160a01b039091168152602090f35b3461010f57602036600319011261010f575f60c061024e610875565b8281528260208201528260408201528260608201528260808201528260a082015201526004355f52600260205260405f20610287610875565b60018060a01b03825416815260018060a01b03600183015416916020820192835260018060a01b036002820154166040830190815260046003830154926060850193845201546080840160ff82161515815260ff60a0860192818160081c161515845260101c169360c086019360048610156101a45760e0976103559686526040519760018060a01b03905116885260018060a01b03905116602088015260018060a01b039051166040870152516060860152511515608085015251151560a08401525160c0830190610815565bf35b3461010f575f36600319011261010f5761036f6108fa565b5f80546001600160a01b0319811682556001600160a01b03167f8be0079c531659141344cd1fd0a4f28419497f9722a3daafe3b4186f6b6457e08280a3005b604036600319011261010f576103c2610822565b6024356001600160a01b038116919082900361010f5734156105ad576001600160a01b031690811561057557801561053c576001545f19811461052857600101918260015561040f610875565b3381526020808201838152604080840186815234606086019081525f6080870181815260a08801828152600160c08a018181529c845260029889905295909220975188546001600160a01b039182166001600160a01b0319918216178a5596519589018054968216968816969096179095559251958701805496909416959094169490941790915591516003840155905160049283018054925161ff0090151560081b1691151560ff1661ffff1990931692909217178155935193908410156101a45760209362ff000082549160101b169062ff00001916179055600154916040519081523484820152827f62ec80e11a3cd325dded9e043ff526aac6338558a6c88bceaa24ea839b6d501260403393a4604051908152f35b634e487b7160e01b5f52601160045260245ffd5b60405162461bcd60e51b8152602060048201526011602482015270496e76616c696420696e737572616e636560781b6044820152606490fd5b60405162461bcd60e51b815260206004820152601060248201526f125b9d985b1a59081a1bdcdc1a5d185b60821b6044820152606490fd5b60405162461bcd60e51b81526020600482015260126024820152710416d6f756e74206d757374206265203e20360741b6044820152606490fd5b3461010f57602036600319011261010f576004355f81815260026020526040902060018101546001600160a01b03163303610675576004019081549160ff8360101c1660048110156101a4576101a2936106446001809314610838565b60ff1916179055807f5c1ed6c60794a5824aa4aadb9e3bf6f0c1c9360e655e8a576e06c86698b193275f80a2610920565b60405162461bcd60e51b815260206004820152600d60248201526c13db9b1e481a1bdcdc1a5d185b609a1b6044820152606490fd5b3461010f57602036600319011261010f576004356106c66108fa565b805f52600260205260405f20600481019060ff825460101c169160048310156101a4575f80809381936106fc6001899814610838565b805462ff0000191662030000179055805460039190910154906001600160a01b03165af16107286108a9565b5015610754577fca4bd5135a11e3fc146ac22d75f0d2eae9b6c61b6fa3eb6724a456b311ad72d35f80a2005b60405162461bcd60e51b815260206004820152600d60248201526c1499599d5b990819985a5b1959609a1b6044820152606490fd5b3461010f57602036600319011261010f5760e0906004355f52600260205261035560405f2060018060a01b038154169060018060a01b0360018201541660018060a01b03600283015416906004600384015493015493865260208601526040850152606084015260ff81161515608084015260ff8160081c16151560a084015260ff60c084019160101c165b9060048210156101a45752565b600435906001600160a01b038216820361010f57565b1561083f57565b60405162461bcd60e51b815260206004820152600e60248201526d496e76616c69642073746174757360901b6044820152606490fd5b6040519060e0820182811067ffffffffffffffff82111761089557604052565b634e487b7160e01b5f52604160045260245ffd5b3d156108f5573d9067ffffffffffffffff82116108955760405191601f8101601f19908116603f0116830167ffffffffffffffff8111848210176108955760405282523d5f602084013e565b606090565b5f546001600160a01b0316330361090d57565b63118cdaa760e01b5f523360045260245ffd5b805f52600260205260405f2060048101805460ff811690816109e0575b5061094757505050565b805462ff000019166202000017905560018101546003909101545f91829182918291906001600160a01b03165af161097d6108a9565b50156109a9577f952b264c8e0a06cddb4bbaa6d6af1d565145329fd95bbe72cb2b53942b2dc9665f80a2565b60405162461bcd60e51b815260206004820152600f60248201526e151c985b9cd9995c8819985a5b1959608a1b6044820152606490fd5b60ff915060081c165f61093d56fea26469706673582212203a793326af902ad0a25dbc8d4457fd58cf8b557f5ef01a6ad80b85991745216964736f6c63430008210033000000000000000000000000f39fd6e51aad88f6f4ce6ab8827279cfffb92266",
        "nonce": "0x3",
        "chainId": "0x7a69"
      },
      "additionalContracts": [],
      "isFixedGasLimit": false
    },
    {
      "hash": "0xf7d3691161d2da13559be7eccdd0ea43276f4fc29164145867407853969485ab",
      "transactionType": "CREATE",
      "contractName": "MedicalRecords",
      "contractAddress": "0xdc64a140aa3e981100a9beca4e685f962f0cf6c9",
      "function": null,
      "arguments": [
        "0x9fE46736679d2D9a65F0992F2272dE9f3c7fa6e0",
        "0xe7f1725E7734CE288F8367e1Bb143E90bb3F0512",
        "0xf39Fd6e51aad88F6F4ce6aB8827279cffFb92266"
      ],
      "transaction": {
        "from": "0xf39fd6e51aad88f6f4ce6ab8827279cfffb92266",
        "gas": "0x1001a9",
        "value": "0x0",
        "input": "0x60803461010757601f610d7b38819003918201601f19168301916001600160401b0383118484101761010b57808492606094604052833981010312610107576100478161011f565b906100546020820161011f565b906001600160a01b039061006a9060400161011f565b169182156100f4575f80546001600160a01b031981168517825560405194916001600160a01b03909116907f8be0079c531659141344cd1fd0a4f28419497f9722a3daafe3b4186f6b6457e09080a3600480546001600160a01b039283166001600160a01b03199182161790915560058054939092169216919091179055610c4790816101348239f35b631e4fbdf760e01b5f525f60045260245ffd5b5f80fd5b634e487b7160e01b5f52604160045260245ffd5b51906001600160a01b03821682036101075756fe60806040526004361015610011575f80fd5b5f3560e01c8063715018a6146109785780637599be5d1461095b57806382cfb2ff146109335780638da5cb5b1461090c578063a0076e84146106de578063d38c534e1461066c578063d47b41d51461012d578063e75bb266146101055763f2fde38b1461007c575f80fd5b34610101576020366003190112610101576100956109cf565b61009d610beb565b6001600160a01b031680156100ee575f80546001600160a01b03198116831782556001600160a01b0316907f8be0079c531659141344cd1fd0a4f28419497f9722a3daafe3b4186f6b6457e09080a3005b631e4fbdf760e01b5f525f60045260245ffd5b5f80fd5b34610101575f366003190112610101576004546040516001600160a01b039091168152602090f35b34610101576060366003190112610101576101466109cf565b60243567ffffffffffffffff811161010157610166903690600401610a47565b60443567ffffffffffffffff811161010157610186903690600401610a47565b600554604051630b13acdf60e01b815233600482015291939190602090829060249082906001600160a01b03165afa908115610607575f9161064d575b50156106125760048054604051631709ef0760e01b81526001600160a01b03848116938201939093523360248201529160209183916044918391165afa801561060757610217915f916105d8575b50610ab5565b610222600154610bc9565b60015560018060a01b031690815f52600360205260405f2060206040518092845180848701845e82019081520301902061025c8154610bc9565b809155825f52600260205260405f2090600154916040519261027d84610a09565b835260208301338152604084018681526060850190868252608086019289845260a087019442865260c08801968752805490680100000000000000008210156104e957600182018082558210156105c4575f908152602090209751600791909102909701968755516001870180546001600160a01b03199081166001600160a01b039384161790915591516002880180549093169116179055518051600386019167ffffffffffffffff82116104e95781906103398454610af1565b601f811161056b575b50602090601f8311600114610508575f926104fd575b50508160011b915f199060031b1c19161790555b518051600485019167ffffffffffffffff82116104e95761038d8354610af1565b601f8111610498575b50602090601f831160011461043057600695949392915f9183610425575b50508160011b915f199060031b1c19161790555b516005840155519101557f0245d343b711757637a3608d9f701ceab53135194074c8efbe2dab09feabb789610411600154926104206040519283926040845260408401906109e5565b828103602084015233976109e5565b0390a4005b015190508a806103b4565b90601f19831691845f52815f20925f5b81811061048057509160019391856006999897969410610468575b505050811b0190556103c8565b01515f1960f88460031b161c191690558a808061045b565b92936020600181928786015181550195019301610440565b8281111561039657835f5260205f20601f840160051c90602085106104e1575b81601f9101920160051c03905f5b8281106104d4575050610396565b5f828201556001016104c6565b5f91506104b8565b634e487b7160e01b5f52604160045260245ffd5b015190508a80610358565b5f8581528281209350601f198516905b818110610553575090846001959493921061053b575b505050811b01905561036c565b01515f1960f88460031b161c191690558a808061052e565b92936020600181928786015181550195019301610518565b8281111561034257909150835f5260205f20601f840160051c90602085106105bc575b849392601f0160051c82900391015f5b8281106105ac575050610342565b5f8183015585945060010161059e565b5f915061058e565b634e487b7160e01b5f52603260045260245ffd5b6105fa915060203d602011610600575b6105f28183610a25565b810190610a9d565b85610211565b503d6105e8565b6040513d5f823e3d90fd5b60405162461bcd60e51b8152602060048201526013602482015272111bd8dd1bdc881b9bdd081d995c9a599a5959606a1b6044820152606490fd5b610666915060203d602011610600576105f28183610a25565b846101c3565b34610101576040366003190112610101576106856109cf565b6024359067ffffffffffffffff82116101015760208080926106ab853690600401610a47565b9060018060a01b03165f526003825260405f20604051938285935191829101845e82019081520301902054604051908152f35b34610101576020366003190112610101576106f76109cf565b6001600160a01b03811690338214801561089d575b6107169150610ab5565b5f52600260205260405f2080549067ffffffffffffffff82116104e9576040519161074760208260051b0184610a25565b8083526020830180925f5260205f205f915b83831061082457848660405191829160208301906020845251809152604083019060408160051b85010192915f905b82821061079757505050500390f35b919360019193955060208091603f1989820301855287519081518152848060a01b03838301511683820152848060a01b03604083015116604082015260c0806108046107f2606086015160e0606087015260e08601906109e5565b608086015185820360808701526109e5565b9360a081015160a085015201519101529601920192018594939192610788565b6007602060019260405161083781610a09565b855481528486015460a086901b86900390811684830152600287015416604082015261086560038701610b29565b606082015261087660048701610b29565b6080820152600586015460a0820152600686015460c0820152815201920192019190610759565b5060048054604051631709ef0760e01b81526001600160a01b0393841692810192909252336024830152909160209183916044918391165afa801561060757610716915f916108ed575b5061070c565b610906915060203d602011610600576105f28183610a25565b836108e7565b34610101575f366003190112610101575f546040516001600160a01b039091168152602090f35b34610101575f366003190112610101576005546040516001600160a01b039091168152602090f35b34610101575f366003190112610101576020600154604051908152f35b34610101575f36600319011261010157610990610beb565b5f80546001600160a01b0319811682556001600160a01b03167f8be0079c531659141344cd1fd0a4f28419497f9722a3daafe3b4186f6b6457e08280a3005b600435906001600160a01b038216820361010157565b805180835260209291819084018484015e5f828201840152601f01601f1916010190565b60e0810190811067ffffffffffffffff8211176104e957604052565b90601f8019910116810190811067ffffffffffffffff8211176104e957604052565b81601f820112156101015780359067ffffffffffffffff82116104e95760405192610a7c601f8401601f191660200185610a25565b8284526020838301011161010157815f926020809301838601378301015290565b90816020910312610101575180151581036101015790565b15610abc57565b60405162461bcd60e51b815260206004820152600d60248201526c1058d8d95cdcc819195b9a5959609a1b6044820152606490fd5b90600182811c92168015610b1f575b6020831014610b0b57565b634e487b7160e01b5f52602260045260245ffd5b91607f1691610b00565b9060405191825f825492610b3c84610af1565b8084529360018116908115610ba75750600114610b63575b50610b6192500383610a25565b565b90505f9291925260205f20905f915b818310610b8b575050906020610b61928201015f610b54565b6020919350806001915483858901015201910190918492610b72565b905060209250610b6194915060ff191682840152151560051b8201015f610b54565b5f198114610bd75760010190565b634e487b7160e01b5f52601160045260245ffd5b5f546001600160a01b03163303610bfe57565b63118cdaa760e01b5f523360045260245ffdfea2646970667358221220196262fd1d3ef15bc4fad4b575a27c45d1d73037c391f5b4e8914f2e5b0b8a8464736f6c634300082100330000000000000000000000009fe46736679d2d9a65f0992f2272de9f3c7fa6e0000000000000000000000000e7f1725e7734ce288f8367e1bb143e90bb3f0512000000000000000000000000f39fd6e51aad88f6f4ce6ab8827279cfffb92266",
        "nonce": "0x4",
        "chainId": "0x7a69"
      },
      "additionalContracts": [],
      "isFixedGasLimit": false
    },
    {
      "hash": "0x794c264e462a7d48bb6860019ed0bc79ab4d267f4382bb308553d9ec42b14bdb",
      "transactionType": "CALL",
      "contractName": "HospitalRegistry",
      "contractAddress": "0x5fbdb2315678afecb367f032d93f642f64180aa3",
      "function": "registerHospital(address,string,string,bool)",
      "arguments": [
        "0x70997970C51812dc3A010C7d01b50e0d17dc79C8",
        "AIIMS",
        "Delhi",
        "true"
      ],
      "transaction": {
        "from": "0xf39fd6e51aad88f6f4ce6ab8827279cfffb92266",
        "to": "0x5fbdb2315678afecb367f032d93f642f64180aa3",
        "gas": "0x1fd9e",
        "value": "0x0",
        "input": "0x5e30906500000000000000000000000070997970c51812dc3a010c7d01b50e0d17dc79c8000000000000000000000000000000000000000000000000000000000000008000000000000000000000000000000000000000000000000000000000000000c0000000000000000000000000000000000000000000000000000000000000000100000000000000000000000000000000000000000000000000000000000000054149494d53000000000000000000000000000000000000000000000000000000000000000000000000000000000000000000000000000000000000000000000544656c6869000000000000000000000000000000000000000000000000000000",
        "nonce": "0x5",
        "chainId": "0x7a69"
      },
      "additionalContracts": [],
      "isFixedGasLimit": false
    },
    {
      "hash": "0xe8c4461b88c21f9ee81df7129b5cc64140cef1fc3f096454cb1d21c520764196",
      "transactionType": "CALL",
      "contractName": "HospitalRegistry",
      "contractAddress": "0x5fbdb2315678afecb367f032d93f642f64180aa3",
      "function": "verifyHospital(address)",
      "arguments": [
        "0x70997970C51812dc3A010C7d01b50e0d17dc79C8"
      ],
      "transaction": {
        "from": "0xf39fd6e51aad88f6f4ce6ab8827279cfffb92266",
        "to": "0x5fbdb2315678afecb367f032d93f642f64180aa3",
        "gas": "0xb8e1",
        "value": "0x0",
        "input": "0x46fab62400000000000000000000000070997970c51812dc3a010c7d01b50e0d17dc79c8",
        "nonce": "0x6",
        "chainId": "0x7a69"
      },
      "additionalContracts": [],
      "isFixedGasLimit": false
    },
    {
      "hash": "0x92599566694cd9f0f014f77c9489d9eac963ca4a6f0b8b368e5774bae2a5cafc",
      "transactionType": "CALL",
      "contractName": "DoctorRegistry",
      "contractAddress": "0xe7f1725e7734ce288f8367e1bb143e90bb3f0512",
      "function": "registerDoctor(address,string,string,address)",
      "arguments": [
        "0x3C44CdDdB6a900fa2b585dd299e03d12FA4293BC",
        "Dr Strange",
        "Neuro",
        "0x70997970C51812dc3A010C7d01b50e0d17dc79C8"
      ],
      "transaction": {
        "from": "0xf39fd6e51aad88f6f4ce6ab8827279cfffb92266",
        "to": "0xe7f1725e7734ce288f8367e1bb143e90bb3f0512",
        "gas": "0x24a3d",
        "value": "0x0",
        "input": "0x054972090000000000000000000000003c44cdddb6a900fa2b585dd299e03d12fa4293bc000000000000000000000000000000000000000000000000000000000000008000000000000000000000000000000000000000000000000000000000000000c000000000000000000000000070997970c51812dc3a010c7d01b50e0d17dc79c8000000000000000000000000000000000000000000000000000000000000000a447220537472616e67650000000000000000000000000000000000000000000000000000000000000000000000000000000000000000000000000000000000054e6575726f000000000000000000000000000000000000000000000000000000",
        "nonce": "0x7",
        "chainId": "0x7a69"
      },
      "additionalContracts": [],
      "isFixedGasLimit": false
    },
    {
      "hash": "0x54fcd15aa8b0793d83ebf8fb37edc763492aba936f1e6522cc476084b143df40",
      "transactionType": "CALL",
      "contractName": "DoctorRegistry",
      "contractAddress": "0xe7f1725e7734ce288f8367e1bb143e90bb3f0512",
      "function": "verifyDoctor(address)",
      "arguments": [
        "0x3C44CdDdB6a900fa2b585dd299e03d12FA4293BC"
      ],
      "transaction": {
        "from": "0xf39fd6e51aad88f6f4ce6ab8827279cfffb92266",
        "to": "0xe7f1725e7734ce288f8367e1bb143e90bb3f0512",
        "gas": "0xaf2f",
        "value": "0x0",
        "input": "0xd80cb05c0000000000000000000000003c44cdddb6a900fa2b585dd299e03d12fa4293bc",
        "nonce": "0x8",
        "chainId": "0x7a69"
      },
      "additionalContracts": [],
      "isFixedGasLimit": false
    },
    {
      "hash": "0x448ab6418f5ad9ebee99e13da09a80c6ac23a3e4e055456db5a6e53147c94b2c",
      "transactionType": "CALL",
      "contractName": "ConsentManager",
      "contractAddress": "0x9fe46736679d2d9a65f0992f2272de9f3c7fa6e0",
      "function": "grantAccess(address)",
      "arguments": [
        "0x3C44CdDdB6a900fa2b585dd299e03d12FA4293BC"
      ],
      "transaction": {
        "from": "0x90f79bf6eb2c4f870365e785982e1f101e93b906",
        "to": "0x9fe46736679d2d9a65f0992f2272de9f3c7fa6e0",
        "gas": "0xf50f",
        "value": "0x0",
        "input": "0x0ae5e7390000000000000000000000003c44cdddb6a900fa2b585dd299e03d12fa4293bc",
        "nonce": "0x0",
        "chainId": "0x7a69"
      },
      "additionalContracts": [],
      "isFixedGasLimit": false
    },
    {
      "hash": "0x62fa4be091a25c700524e60c4d20fade3b700bf571a6725c0e461a0afa7c4e7e",
      "transactionType": "CALL",
      "contractName": "MedicalRecords",
      "contractAddress": "0xdc64a140aa3e981100a9beca4e685f962f0cf6c9",
      "function": "addRecord(address,string,string)",
      "arguments": [
        "0x90F79bf6EB2c4f870365E785982E1f101E93b906",
        "XRay",
        "QmExampleHash"
      ],
      "transaction": {
        "from": "0x3c44cdddb6a900fa2b585dd299e03d12fa4293bc",
        "to": "0xdc64a140aa3e981100a9beca4e685f962f0cf6c9",
        "gas": "0x597aa",
        "value": "0x0",
        "input": "0xd47b41d500000000000000000000000090f79bf6eb2c4f870365e785982e1f101e93b906000000000000000000000000000000000000000000000000000000000000006000000000000000000000000000000000000000000000000000000000000000a000000000000000000000000000000000000000000000000000000000000000045852617900000000000000000000000000000000000000000000000000000000000000000000000000000000000000000000000000000000000000000000000d516d4578616d706c654861736800000000000000000000000000000000000000",
        "nonce": "0x0",
        "chainId": "0x7a69"
      },
      "additionalContracts": [],
      "isFixedGasLimit": false
    },
    {
      "hash": "0xde9383106bc5d3f6a571ed0770c36df11cb783fa0dc6398603420d3bd84906d6",
      "transactionType": "CALL",
      "contractName": "InsuranceEscrow",
      "contractAddress": "0xcf7ed3acca5a467e9e704c703e8d87f634fb0fc9",
      "function": "lockFunds(address,address)",
      "arguments": [
        "0x70997970C51812dc3A010C7d01b50e0d17dc79C8",
        "0x15d34AAf54267DB7D7c367839AAf71A00a2C6A65"
      ],
      "transaction": {
        "from": "0x90f79bf6eb2c4f870365e785982e1f101e93b906",
        "to": "0xcf7ed3acca5a467e9e704c703e8d87f634fb0fc9",
        "gas": "0x355e6",
        "value": "0xde0b6b3a7640000",
        "input": "0x466730ff00000000000000000000000070997970c51812dc3a010c7d01b50e0d17dc79c800000000000000000000000015d34aaf54267db7d7c367839aaf71a00a2c6a65",
        "nonce": "0x1",
        "chainId": "0x7a69"
      },
      "additionalContracts": [],
      "isFixedGasLimit": false
    },
    {
      "hash": "0xa1a9387d75e8093451c77292a5cdbbeeaedd87c9657aa1d77223b3ef68ba8624",
      "transactionType": "CALL",
      "contractName": "InsuranceEscrow",
      "contractAddress": "0xcf7ed3acca5a467e9e704c703e8d87f634fb0fc9",
      "function": "approveByHospital(uint256)",
      "arguments": [
        "1"
      ],
      "transaction": {
        "from": "0x70997970c51812dc3a010c7d01b50e0d17dc79c8",
        "to": "0xcf7ed3acca5a467e9e704c703e8d87f634fb0fc9",
        "gas": "0xac2d",
        "value": "0x0",
        "input": "0x378942d30000000000000000000000000000000000000000000000000000000000000001",
        "nonce": "0x0",
        "chainId": "0x7a69"
      },
      "additionalContracts": [],
      "isFixedGasLimit": false
    },
    {
      "hash": "0x0f29a119220048ead894c4941850ed326245f89441e8935d4bf161b18570ec34",
      "transactionType": "CALL",
      "contractName": "InsuranceEscrow",
      "contractAddress": "0xcf7ed3acca5a467e9e704c703e8d87f634fb0fc9",
      "function": "approveByInsurance(uint256)",
      "arguments": [
        "1"
      ],
      "transaction": {
        "from": "0x15d34aaf54267db7d7c367839aaf71a00a2c6a65",
        "to": "0xcf7ed3acca5a467e9e704c703e8d87f634fb0fc9",
        "gas": "0x10281",
        "value": "0x0",
        "input": "0xdba579aa0000000000000000000000000000000000000000000000000000000000000001",
        "nonce": "0x0",
        "chainId": "0x7a69"
      },
      "additionalContracts": [],
      "isFixedGasLimit": false
    }
  ],
  "receipts": [
    {
      "status": "0x1",
      "cumulativeGasUsed": "0x97377",
      "logs": [
        {
          "address": "0x5fbdb2315678afecb367f032d93f642f64180aa3",
          "topics": [
            "0x8be0079c531659141344cd1fd0a4f28419497f9722a3daafe3b4186f6b6457e0",
            "0x0000000000000000000000000000000000000000000000000000000000000000",
            "0x000000000000000000000000f39fd6e51aad88f6f4ce6ab8827279cfffb92266"
          ],
          "data": "0x",
          "blockHash": "0x943a53a3ba5709f827b025ed4d3ccb0e33170dd5d3268387eedb37a521a1d1bf",
          "blockNumber": "0x1",
          "blockTimestamp": "0x69a579b4",
          "transactionHash": "0xebd85c4e3a8bdce739ba19438e8491d00004a4feefd6b5300eabedf59951bd32",
          "transactionIndex": "0x0",
          "logIndex": "0x0",
          "removed": false
        }
      ],
      "logsBloom": "0x00000000000000000000000000000000000000000000000000800000000000000000000000000000000000000000000000000000000000000000000000000000000000000000000000000000000000000001000000000000000000000000000000000040020000000000000100000800000000000000000000000000000000400000000000000000000000000000000000000000000000000000000200000000000000000000000000000000000000000000000000000000000000000000000000000040000000200000000000000000000000002000000000000000000020000000000000000000000000000000000000000000000000000000000000000000",
      "type": "0x2",
      "transactionHash": "0xebd85c4e3a8bdce739ba19438e8491d00004a4feefd6b5300eabedf59951bd32",
      "transactionIndex": "0x0",
      "blockHash": "0x943a53a3ba5709f827b025ed4d3ccb0e33170dd5d3268387eedb37a521a1d1bf",
      "blockNumber": "0x1",
      "gasUsed": "0x97377",
      "effectiveGasPrice": "0x3b9aca01",
      "blobGasPrice": "0x1",
      "from": "0xf39fd6e51aad88f6f4ce6ab8827279cfffb92266",
      "to": null,
      "contractAddress": "0x5fbdb2315678afecb367f032d93f642f64180aa3"
    },
    {
      "status": "0x1",
      "cumulativeGasUsed": "0x9bbc0",
      "logs": [
        {
          "address": "0xe7f1725e7734ce288f8367e1bb143e90bb3f0512",
          "topics": [
            "0x8be0079c531659141344cd1fd0a4f28419497f9722a3daafe3b4186f6b6457e0",
            "0x0000000000000000000000000000000000000000000000000000000000000000",
            "0x000000000000000000000000f39fd6e51aad88f6f4ce6ab8827279cfffb92266"
          ],
          "data": "0x",
          "blockHash": "0xfc8eb543bff6e00d2d06611a2ed31d118597f72cbc39111856f08bbb8d442335",
          "blockNumber": "0x2",
          "blockTimestamp": "0x69a579b4",
          "transactionHash": "0xddaf6bdb8e9ccd3d4ca23e2c8d3ac6ac51eada9784bc04c64c28b4b7672cade8",
          "transactionIndex": "0x0",
          "logIndex": "0x0",
          "removed": false
        }
      ],
      "logsBloom": "0x00000000000000000000000000000000000000000000000000800000000000000000000000000000000000000000000010000000000000000000000000000000000000000000000000000000000000000001000000000000000000000000000000000000020000000000000100000800000000000000000000000000000000400000000000000000000000000000000000000000000000000000000000000000000000000000000000000000000000000000000000000000000000000000000000000000000000200000000000001000000000002000000000000000000020000000000000000000000000000000000000000000000000800000000000000000",
      "type": "0x2",
      "transactionHash": "0xddaf6bdb8e9ccd3d4ca23e2c8d3ac6ac51eada9784bc04c64c28b4b7672cade8",
      "transactionIndex": "0x0",
      "blockHash": "0xfc8eb543bff6e00d2d06611a2ed31d118597f72cbc39111856f08bbb8d442335",
      "blockNumber": "0x2",
      "gasUsed": "0x9bbc0",
      "effectiveGasPrice": "0x347632f6",
      "blobGasPrice": "0x1",
      "from": "0xf39fd6e51aad88f6f4ce6ab8827279cfffb92266",
      "to": null,
      "contractAddress": "0xe7f1725e7734ce288f8367e1bb143e90bb3f0512"
    },
    {
      "status": "0x1",
      "cumulativeGasUsed": "0x54513",
      "logs": [
        {
          "address": "0x9fe46736679d2d9a65f0992f2272de9f3c7fa6e0",
          "topics": [
            "0x8be0079c531659141344cd1fd0a4f28419497f9722a3daafe3b4186f6b6457e0",
            "0x0000000000000000000000000000000000000000000000000000000000000000",
            "0x000000000000000000000000f39fd6e51aad88f6f4ce6ab8827279cfffb92266"
          ],
          "data": "0x",
          "blockHash": "0xdf7fe78a47a9c9e51402c25cdd86cbf1f9680ce1b5be1f8132c1a1c2929755d0",
          "blockNumber": "0x3",
          "blockTimestamp": "0x69a579b4",
          "transactionHash": "0x8f45be54fe28ce2fd1d791d267a46f39a4b8c92c2407cb2cf43c4be43a594634",
          "transactionIndex": "0x0",
          "logIndex": "0x0",
          "removed": false
        }
      ],
      "logsBloom": "0x00000000000000000000000000000000000000000000000000800000000000000000000000000000000000000000000000000000000040200000000000000000000000000000000000000000000000000001000000000000000000000000000000000000020000000000000100000800000000000000000000000000000000400000000000000000000000000000000000000000000000000000000000000000000000000000000000000000000000000000000000000000000000000000000000000000000000200000000000000000000000002000000000000000000020000000000000000000000000000000000000000000000000400000000000000000",
      "type": "0x2",
      "transactionHash": "0x8f45be54fe28ce2fd1d791d267a46f39a4b8c92c2407cb2cf43c4be43a594634",
      "transactionIndex": "0x0",
      "blockHash": "0xdf7fe78a47a9c9e51402c25cdd86cbf1f9680ce1b5be1f8132c1a1c2929755d0",
      "blockNumber": "0x3",
      "gasUsed": "0x54513",
      "effectiveGasPrice": "0x2e2ed0c8",
      "blobGasPrice": "0x1",
      "from": "0xf39fd6e51aad88f6f4ce6ab8827279cfffb92266",
      "to": null,
      "contractAddress": "0x9fe46736679d2d9a65f0992f2272de9f3c7fa6e0"
    },
    {
      "status": "0x1",
      "cumulativeGasUsed": "0x9cade",
      "logs": [
        {
          "address": "0xcf7ed3acca5a467e9e704c703e8d87f634fb0fc9",
          "topics": [
            "0x8be0079c531659141344cd1fd0a4f28419497f9722a3daafe3b4186f6b6457e0",
            "0x0000000000000000000000000000000000000000000000000000000000000000",
            "0x000000000000000000000000f39fd6e51aad88f6f4ce6ab8827279cfffb92266"
          ],
          "data": "0x",
          "blockHash": "0x04d7387a6087d687eba89fe0d379fa0dd497d6b6375006cb25117219b174d718",
          "blockNumber": "0x4",
          "blockTimestamp": "0x69a579b4",
          "transactionHash": "0xc0bcc4cd0e207bd1d6e8411c8a19bc5e8c4731a40b91acf9b2098874792eb886",
          "transactionIndex": "0x0",
          "logIndex": "0x0",
          "removed": false
        }
      ],
      "logsBloom": "0x00000000000000000000000000000000000000000000000000800000000000000000000000000000000000000000080000000000000000000000000000000001000000000000000000000000000000000001000000000000000000000000000000000000020000000000000100000800000000000000000000000000000000400000000008000000000000000000000000000000000000000000000000000000000000000000000000000000000000000000000000000000000000000000000000000000000000200000000000000000000000002000000000000000000020000000000000000000000000000000000000000000000000000000000000000000",
      "type": "0x2",
      "transactionHash": "0xc0bcc4cd0e207bd1d6e8411c8a19bc5e8c4731a40b91acf9b2098874792eb886",
      "transactionIndex": "0x0",
      "blockHash": "0x04d7387a6087d687eba89fe0d379fa0dd497d6b6375006cb25117219b174d718",
      "blockNumber": "0x4",
      "gasUsed": "0x9cade",
      "effectiveGasPrice": "0x288afd6f",
      "blobGasPrice": "0x1",
      "from": "0xf39fd6e51aad88f6f4ce6ab8827279cfffb92266",
      "to": null,
      "contractAddress": "0xcf7ed3acca5a467e9e704c703e8d87f634fb0fc9"
    },
    {
      "status": "0x1",
      "cumulativeGasUsed": "0xc500c",
      "logs": [
        {
          "address": "0xdc64a140aa3e981100a9beca4e685f962f0cf6c9",
          "topics": [
            "0x8be0079c531659141344cd1fd0a4f28419497f9722a3daafe3b4186f6b6457e0",
            "0x0000000000000000000000000000000000000000000000000000000000000000",
            "0x000000000000000000000000f39fd6e51aad88f6f4ce6ab8827279cfffb92266"
          ],
          "data": "0x",
          "blockHash": "0xc9f575874128b605e83e773d0032266ed8f8a69c8b0b0af49541e50225bff664",
          "blockNumber": "0x5",
          "blockTimestamp": "0x69a579b4",
          "transactionHash": "0xf7d3691161d2da13559be7eccdd0ea43276f4fc29164145867407853969485ab",
          "transactionIndex": "0x0",
          "logIndex": "0x0",
          "removed": false
        }
      ],
      "logsBloom": "0x00000000000000000000000000000000000000000000000000800000000000000000000000000000000000000000000000000000000000000000000000000000000000000000000000000000000000000001000000000000000000000000000000000000020000000000000100000800000000000000000000000000000000400000000000000000000000000000000000000000000000000000000000000000000000000000000000000000000000000000000000000000000000000000000000000000000000200000000000000000000000002020000000000000000020000000000000000000000000000000000000000001000000000100000000000000",
      "type": "0x2",
      "transactionHash": "0xf7d3691161d2da13559be7eccdd0ea43276f4fc29164145867407853969485ab",
      "transactionIndex": "0x0",
      "blockHash": "0xc9f575874128b605e83e773d0032266ed8f8a69c8b0b0af49541e50225bff664",
      "blockNumber": "0x5",
      "gasUsed": "0xc500c",
      "effectiveGasPrice": "0x23b11f77",
      "blobGasPrice": "0x1",
      "from": "0xf39fd6e51aad88f6f4ce6ab8827279cfffb92266",
      "to": null,
      "contractAddress": "0xdc64a140aa3e981100a9beca4e685f962f0cf6c9"
    },
    {
      "status": "0x1",
      "cumulativeGasUsed": "0x170f5",
      "logs": [
        {
          "address": "0x5fbdb2315678afecb367f032d93f642f64180aa3",
          "topics": [
            "0x380355b6fe4f9755ddcef7c5c195edae45bdb34953a41d82386022f3cd5899f0",
            "0x00000000000000000000000070997970c51812dc3a010c7d01b50e0d17dc79c8"
          ],
          "data": "0x",
          "blockHash": "0x1f4027594459dc1c4e473fcf5491f233aeb7aa410ac27711c36e4d9be1ea9345",
          "blockNumber": "0x6",
          "blockTimestamp": "0x69a579b4",
          "transactionHash": "0x794c264e462a7d48bb6860019ed0bc79ab4d267f4382bb308553d9ec42b14bdb",
          "transactionIndex": "0x0",
          "logIndex": "0x0",
          "removed": false
        }
      ],
      "logsBloom": "0x00000000000000010002000000000000000000000000000008000000000000000000000000000000000000000000000000000000000000000000000000000000000000000000000000000000000000000000200000000000000000000000000000000840000000000000000000000000000000000000000000000000000000000000000000000000000000000000000000000000000000000000000200000000000000000000000000000000000000000000000000000000000000000000000000000040000000000000000000000000000000000000000000000000000000000000000000000000000000000000000001000000000000000000000000000000",
      "type": "0x2",
      "transactionHash": "0x794c264e462a7d48bb6860019ed0bc79ab4d267f4382bb308553d9ec42b14bdb",
      "transactionIndex": "0x0",
      "blockHash": "0x1f4027594459dc1c4e473fcf5491f233aeb7aa410ac27711c36e4d9be1ea9345",
      "blockNumber": "0x6",
      "gasUsed": "0x170f5",
      "effectiveGasPrice": "0x1f786c86",
      "blobGasPrice": "0x1",
      "from": "0xf39fd6e51aad88f6f4ce6ab8827279cfffb92266",
      "to": "0x5fbdb2315678afecb367f032d93f642f64180aa3",
      "contractAddress": null
    },
    {
      "status": "0x1",
      "cumulativeGasUsed": "0x7e6a",
      "logs": [
        {
          "address": "0x5fbdb2315678afecb367f032d93f642f64180aa3",
          "topics": [
            "0xf474af46ed77eb03872a0d016133655c67f732a6d73a90ea7403bd4a79f8bcdf",
            "0x00000000000000000000000070997970c51812dc3a010c7d01b50e0d17dc79c8"
          ],
          "data": "0x",
          "blockHash": "0x2856a68aa922d53f499544b1cd8508861ed91d0fe882ad915f181e24fc99f994",
          "blockNumber": "0x7",
          "blockTimestamp": "0x69a579b4",
          "transactionHash": "0xe8c4461b88c21f9ee81df7129b5cc64140cef1fc3f096454cb1d21c520764196",
          "transactionIndex": "0x0",
          "logIndex": "0x0",
          "removed": false
        }
      ],
      "logsBloom": "0x00000000000000000002000000000000000010000000000000000000000000000000000000000000000000000000000001000000000000000000000000000000000000000000000000000000000000000000000000000000000000000000000000000840000000000000000000000000000000000000000000000000000000000000000000000000000040000000000000000000000000000000000200000000000000000000000000000000000000000000000000000000000000000000000000000040000000000000000000000000000000000000000000000000000000000000000000000000000000000000000001000000000000000000000000000000",
      "type": "0x2",
      "transactionHash": "0xe8c4461b88c21f9ee81df7129b5cc64140cef1fc3f096454cb1d21c520764196",
      "transactionIndex": "0x0",
      "blockHash": "0x2856a68aa922d53f499544b1cd8508861ed91d0fe882ad915f181e24fc99f994",
      "blockNumber": "0x7",
      "gasUsed": "0x7e6a",
      "effectiveGasPrice": "0x1b8fb654",
      "blobGasPrice": "0x1",
      "from": "0xf39fd6e51aad88f6f4ce6ab8827279cfffb92266",
      "to": "0x5fbdb2315678afecb367f032d93f642f64180aa3",
      "contractAddress": null
    },
    {
      "status": "0x1",
      "cumulativeGasUsed": "0x190d9",
      "logs": [
        {
          "address": "0xe7f1725e7734ce288f8367e1bb143e90bb3f0512",
          "topics": [
            "0xcf12359779672fc0f439daf25af37eb6bd364d4a91124a6f736cafd64420d3ba",
            "0x0000000000000000000000003c44cdddb6a900fa2b585dd299e03d12fa4293bc",
            "0x00000000000000000000000070997970c51812dc3a010c7d01b50e0d17dc79c8"
          ],
          "data": "0x",
          "blockHash": "0x3ae377cd3aaf206baf997b55fffb4e6633b0885ede9f1e64137c46c7f5d1086d",
          "blockNumber": "0x8",
          "blockTimestamp": "0x69a579b4",
          "transactionHash": "0x92599566694cd9f0f014f77c9489d9eac963ca4a6f0b8b368e5774bae2a5cafc",
          "transactionIndex": "0x0",
          "logIndex": "0x0",
          "removed": false
        }
      ],
      "logsBloom": "0x00000000020000000002000000000000000000000000000000001000000000000000000000000000000000000000000010000000000000000000000000100000000000000000000000000000000000000000000000000000000000000000000000000800000000000000000000000000080800000000000000000000000000000000000000000000000000000000000000000000000000000000000000000000000000000000200000000000000000000000000000000000000000000000000000000000000000000000000000001000000000000000000000000000000000000000000000000000000000000000000001000000000000800000000000000000",
      "type": "0x2",
      "transactionHash": "0x92599566694cd9f0f014f77c9489d9eac963ca4a6f0b8b368e5774bae2a5cafc",
      "transactionIndex": "0x0",
      "blockHash": "0x3ae377cd3aaf206baf997b55fffb4e6633b0885ede9f1e64137c46c7f5d1086d",
      "blockNumber": "0x8",
      "gasUsed": "0x190d9",
      "effectiveGasPrice": "0x181fa6a9",
      "blobGasPrice": "0x1",
      "from": "0xf39fd6e51aad88f6f4ce6ab8827279cfffb92266",
      "to": "0xe7f1725e7734ce288f8367e1bb143e90bb3f0512",
      "contractAddress": null
    },
    {
      "status": "0x1",
      "cumulativeGasUsed": "0x7ed5",
      "logs": [
        {
          "address": "0xe7f1725e7734ce288f8367e1bb143e90bb3f0512",
          "topics": [
            "0xb0859f2cf042b300c8948cdd785ec6a23a3742bc5446c19f4b270b67fac2c967",
            "0x0000000000000000000000003c44cdddb6a900fa2b585dd299e03d12fa4293bc"
          ],
          "data": "0x",
          "blockHash": "0x829cd5516d6fb9ad88869ac4089be1cab9e64e67cb1f1dc76254154e4d014424",
          "blockNumber": "0x9",
          "blockTimestamp": "0x69a579b4",
          "transactionHash": "0x54fcd15aa8b0793d83ebf8fb37edc763492aba936f1e6522cc476084b143df40",
          "transactionIndex": "0x0",
          "logIndex": "0x0",
          "removed": false
        }
      ],
      "logsBloom": "0x00000000000000000000000000000000000000000000000000000000000000000000000000000000000000000000000010000000000000000000000000100000000000000000000000000000000000000000000000000000000000000000000000000000000000000000000000000000000800000000000000000000000000000000200000000000000000000000000000000000004000000000000000000000000000000000200000000000000000000000000000000000000000000000000000000000000000000000000100001000000000000000000000000000000000000000000000000000000000000000000000000000000000800000000000000000",
      "type": "0x2",
      "transactionHash": "0x54fcd15aa8b0793d83ebf8fb37edc763492aba936f1e6522cc476084b143df40",
      "transactionIndex": "0x0",
      "blockHash": "0x829cd5516d6fb9ad88869ac4089be1cab9e64e67cb1f1dc76254154e4d014424",
      "blockNumber": "0x9",
      "gasUsed": "0x7ed5",
      "effectiveGasPrice": "0x1520f9c8",
      "blobGasPrice": "0x1",
      "from": "0xf39fd6e51aad88f6f4ce6ab8827279cfffb92266",
      "to": "0xe7f1725e7734ce288f8367e1bb143e90bb3f0512",
      "contractAddress": null
    },
    {
      "status": "0x1",
      "cumulativeGasUsed": "0xb16c",
      "logs": [
        {
          "address": "0x9fe46736679d2d9a65f0992f2272de9f3c7fa6e0",
          "topics": [
            "0x9f520b3bfc56d06f7065d10b4683b3f57ac8895d5026cd176dee95ce1454cb8d",
            "0x00000000000000000000000090f79bf6eb2c4f870365e785982e1f101e93b906",
            "0x0000000000000000000000003c44cdddb6a900fa2b585dd299e03d12fa4293bc"
          ],
          "data": "0x",
          "blockHash": "0xe96096bf44b9e87c4f6b6df85e67cf6131d5717277e83cee563901f094145b97",
          "blockNumber": "0xa",
          "blockTimestamp": "0x69a579b4",
          "transactionHash": "0x448ab6418f5ad9ebee99e13da09a80c6ac23a3e4e055456db5a6e53147c94b2c",
          "transactionIndex": "0x0",
          "logIndex": "0x0",
          "removed": false
        }
      ],
      "logsBloom": "0x00000000000000000000000000000000000000000000000000000000000000000000000200000000000000000000000000000000000040200000000000100000000000000000000000000000000000000000000000000000000400000000000000000000000000000000000000000000000800000000000000000000000000000000000000000000000000000000000000000000000010000400000000000000000000000000200000000000000000000000000000000000000000000000000000000000000000000000000000000000400000000000000000000000000000000000000000000000000010000000000000000000000000400000000000000000",
      "type": "0x2",
      "transactionHash": "0x448ab6418f5ad9ebee99e13da09a80c6ac23a3e4e055456db5a6e53147c94b2c",
      "transactionIndex": "0x0",
      "blockHash": "0xe96096bf44b9e87c4f6b6df85e67cf6131d5717277e83cee563901f094145b97",
      "blockNumber": "0xa",
      "gasUsed": "0xb16c",
      "effectiveGasPrice": "0x127e513a",
      "blobGasPrice": "0x1",
      "from": "0x90f79bf6eb2c4f870365e785982e1f101e93b906",
      "to": "0x9fe46736679d2d9a65f0992f2272de9f3c7fa6e0",
      "contractAddress": null
    },
    {
      "status": "0x1",
      "cumulativeGasUsed": "0x40c80",
      "logs": [
        {
          "address": "0xdc64a140aa3e981100a9beca4e685f962f0cf6c9",
          "topics": [
            "0x0245d343b711757637a3608d9f701ceab53135194074c8efbe2dab09feabb789",
            "0x0000000000000000000000000000000000000000000000000000000000000001",
            "0x00000000000000000000000090f79bf6eb2c4f870365e785982e1f101e93b906",
            "0x0000000000000000000000003c44cdddb6a900fa2b585dd299e03d12fa4293bc"
          ],
          "data": "0x0000000000000000000000000000000000000000000000000000000000000040000000000000000000000000000000000000000000000000000000000000008000000000000000000000000000000000000000000000000000000000000000045852617900000000000000000000000000000000000000000000000000000000000000000000000000000000000000000000000000000000000000000000000d516d4578616d706c654861736800000000000000000000000000000000000000",
          "blockHash": "0x50b2a3c67eb16f60f977d47c3d16abd71eaa0796270a7cb3bd1cfd0b553ff43b",
          "blockNumber": "0xb",
          "blockTimestamp": "0x69a579b4",
          "transactionHash": "0x62fa4be091a25c700524e60c4d20fade3b700bf571a6725c0e461a0afa7c4e7e",
          "transactionIndex": "0x0",
          "logIndex": "0x0",
          "removed": false
        }
      ],
      "logsBloom": "0x00000000000000000000000000000000000000000000000000000000000000000000000000000000040000000000000000000000000000000000000000140000000000000000000000000000000000000400000000040000000000000000000000000000000000000000000000000000000800000000000000000000000000000000000000000000000000000000000000000000000000000400000000000000000000000000200000000000000000000000000000000000000000000000000000000000000000000000000000000000400000000020000000008000000040000000000000000000000010000000000000000001000000000100000000000000",
      "type": "0x2",
      "transactionHash": "0x62fa4be091a25c700524e60c4d20fade3b700bf571a6725c0e461a0afa7c4e7e",
      "transactionIndex": "0x0",
      "blockHash": "0x50b2a3c67eb16f60f977d47c3d16abd71eaa0796270a7cb3bd1cfd0b553ff43b",
      "blockNumber": "0xb",
      "gasUsed": "0x40c80",
      "effectiveGasPrice": "0x103051d0",
      "blobGasPrice": "0x1",
      "from": "0x3c44cdddb6a900fa2b585dd299e03d12fa4293bc",
      "to": "0xdc64a140aa3e981100a9beca4e685f962f0cf6c9",
      "contractAddress": null
    },
    {
      "status": "0x1",
      "cumulativeGasUsed": "0x26a36",
      "logs": [
        {
          "address": "0xcf7ed3acca5a467e9e704c703e8d87f634fb0fc9",
          "topics": [
            "0x62ec80e11a3cd325dded9e043ff526aac6338558a6c88bceaa24ea839b6d5012",
            "0x0000000000000000000000000000000000000000000000000000000000000001",
            "0x00000000000000000000000090f79bf6eb2c4f870365e785982e1f101e93b906",
            "0x00000000000000000000000070997970c51812dc3a010c7d01b50e0d17dc79c8"
          ],
          "data": "0x00000000000000000000000015d34aaf54267db7d7c367839aaf71a00a2c6a650000000000000000000000000000000000000000000000000de0b6b3a7640000",
          "blockHash": "0xa653f0f5e9372ac4e7d5741b5afad886fed5b957be393ded621f8fc419b9a7ab",
          "blockNumber": "0xc",
          "blockTimestamp": "0x69a579b4",
          "transactionHash": "0xde9383106bc5d3f6a571ed0770c36df11cb783fa0dc6398603420d3bd84906d6",
          "transactionIndex": "0x0",
          "logIndex": "0x0",
          "removed": false
        }
      ],
      "logsBloom": "0x00000000000000000002000000000000000000000000000000000000000000000000000000000000000000000000080000000000000000000000000000040001001000000000000000000000000000000000000000040000000000000000000000000800000000000000000000000000000000000000400000000000000000000000000008000000000000000000000000000000000000000400000004000000000000000000000000000000000000000000000000000000000000000000000000000000000000000000000000000000400000000000000000000000000040000000000000000000000010000000000001000000000000000000000000000000",
      "type": "0x2",
      "transactionHash": "0xde9383106bc5d3f6a571ed0770c36df11cb783fa0dc6398603420d3bd84906d6",
      "transactionIndex": "0x0",
      "blockHash": "0xa653f0f5e9372ac4e7d5741b5afad886fed5b957be393ded621f8fc419b9a7ab",
      "blockNumber": "0xc",
      "gasUsed": "0x26a36",
      "effectiveGasPrice": "0xe33718d",
      "blobGasPrice": "0x1",
      "from": "0x90f79bf6eb2c4f870365e785982e1f101e93b906",
      "to": "0xcf7ed3acca5a467e9e704c703e8d87f634fb0fc9",
      "contractAddress": null
    },
    {
      "status": "0x1",
      "cumulativeGasUsed": "0x75bb",
      "logs": [
        {
          "address": "0xcf7ed3acca5a467e9e704c703e8d87f634fb0fc9",
          "topics": [
            "0x5c1ed6c60794a5824aa4aadb9e3bf6f0c1c9360e655e8a576e06c86698b19327",
            "0x0000000000000000000000000000000000000000000000000000000000000001"
          ],
          "data": "0x",
          "blockHash": "0x590abdd1bf415b20e2d3f70a17ca0d6f07ee81ea13c7c4581e9e25ab97e02847",
          "blockNumber": "0xd",
          "blockTimestamp": "0x69a579b4",
          "transactionHash": "0xa1a9387d75e8093451c77292a5cdbbeeaedd87c9657aa1d77223b3ef68ba8624",
          "transactionIndex": "0x0",
          "logIndex": "0x0",
          "removed": false
        }
      ],
      "logsBloom": "0x00000000000000000000000000000000000000000000000000000000000000000000000000000000000000000000080000000000000000000000000000040001000000000000000000000000000000000000000000040000000000000000000000040000000000000000000000000000000000000000000000000000000000000000000008000000000000000000000000000000000000000000000000000000000000000000000000000000000000000000000000000000000000000000000000000000000000000000000000000000000000000001000000000000000040000000000000000000000000000000000000000000000200000000000000000000",
      "type": "0x2",
      "transactionHash": "0xa1a9387d75e8093451c77292a5cdbbeeaedd87c9657aa1d77223b3ef68ba8624",
      "transactionIndex": "0x0",
      "blockHash": "0x590abdd1bf415b20e2d3f70a17ca0d6f07ee81ea13c7c4581e9e25ab97e02847",
      "blockNumber": "0xd",
      "gasUsed": "0x75bb",
      "effectiveGasPrice": "0xc71cec7",
      "blobGasPrice": "0x1",
      "from": "0x70997970c51812dc3a010c7d01b50e0d17dc79c8",
      "to": "0xcf7ed3acca5a467e9e704c703e8d87f634fb0fc9",
      "contractAddress": null
    },
    {
      "status": "0x1",
      "cumulativeGasUsed": "0xb0c2",
      "logs": [
        {
          "address": "0xcf7ed3acca5a467e9e704c703e8d87f634fb0fc9",
          "topics": [
            "0xb3dab2b8bef10d7551f3e6e8ef911782f7b1805355277744303b989a775b0161",
            "0x0000000000000000000000000000000000000000000000000000000000000001"
          ],
          "data": "0x",
          "blockHash": "0xb1770ef74a2483bca1d57e321a2a0655bac13a031159559b54b5c6361a96c7bb",
          "blockNumber": "0xe",
          "blockTimestamp": "0x69a579b4",
          "transactionHash": "0x0f29a119220048ead894c4941850ed326245f89441e8935d4bf161b18570ec34",
          "transactionIndex": "0x0",
          "logIndex": "0x0",
          "removed": false
        },
        {
          "address": "0xcf7ed3acca5a467e9e704c703e8d87f634fb0fc9",
          "topics": [
            "0x952b264c8e0a06cddb4bbaa6d6af1d565145329fd95bbe72cb2b53942b2dc966",
            "0x0000000000000000000000000000000000000000000000000000000000000001"
          ],
          "data": "0x",
          "blockHash": "0xb1770ef74a2483bca1d57e321a2a0655bac13a031159559b54b5c6361a96c7bb",
          "blockNumber": "0xe",
          "blockTimestamp": "0x69a579b4",
          "transactionHash": "0x0f29a119220048ead894c4941850ed326245f89441e8935d4bf161b18570ec34",
          "transactionIndex": "0x0",
          "logIndex": "0x1",
          "removed": false
        }
      ],
      "logsBloom": "0x00000000000000000000000000000000000000000000000000000000000000000000000000000000000000000000080000000004000000000000000000040001000000000000000000000000000000000000000000040000000000000000000000000000000000000000000000000000000000000000000000002001000000000000000008000000000000000000000000000000000000000000000000000000000000000000000000000000000000000080000000000000000000000000000000000000000000000000000000000000000000000000800000000000010040000000000000000000000000000000000000000000000000000000000000000000",
      "type": "0x2",
      "transactionHash": "0x0f29a119220048ead894c4941850ed326245f89441e8935d4bf161b18570ec34",
      "transactionIndex": "0x0",
      "blockHash": "0xb1770ef74a2483bca1d57e321a2a0655bac13a031159559b54b5c6361a96c7bb",
      "blockNumber": "0xe",
      "gasUsed": "0xb0c2",
      "effectiveGasPrice": "0xae461c5",
      "blobGasPrice": "0x1",
      "from": "0x15d34aaf54267db7d7c367839aaf71a00a2c6a65",
      "to": "0xcf7ed3acca5a467e9e704c703e8d87f634fb0fc9",
      "contractAddress": null
    }
  ],
  "libraries": [],
  "pending": [],
  "returns": {},
  "timestamp": 1772452276689,
  "chain": 31337,
  "commit": null
}